:020000040010EA
:100000006F0040086F0000086F00C0076F00800796
:100010006F0040076F0000076F00C0066F0080068A
:100020006F0040066F0000066F00C0056F0080057E
:100030006F0040056F0000056F00C0046F00800472
:100040006F0040046F0000046F00C0036F00800366
:100050006F0040036F0000036F00C0026F0080025A
:100060006F0040026F0000026F00C0016F0080014E
:100070006F0040016F0000016F00C0006F00800042
:100080006F0080006F00403D930000000681868174
:100090000682868206838683068486840685868514
:1000A00006868686068786870688868806898689E4
:1000B000068A868A068B868B068C868C068D868DB4
:1000C000068E868E068F868F17010200130181F33C
:1000D000170D0000130D0D4F970D0000938D8D4EE1
:1000E0006357BD0123200D00110DE3DDADFF014578
:1000F0008145EF00003CB7020200A102054323A0A6
:10010000620073005010F5BF411106C622C40008FA
:100110004165C5240545212E0100B240224441011C
:100120008280797106D622D40018232EA4FCFD57B4
:100130002326F4FE8327C4FDA1079C43858B91E70A
:100140008327C4FD9C432326F4FE8327C4FE3E85FB
:10015000B250225445618280011106CE22CC00109B
:100160002326A4FEAE87A305F4FE01008327C4FE68
:10017000A1079C43898BFDFB8327C4FE910703479E
:10018000B4FE98C30100F24062440561828001110F
:1001900006CE22CC00102326A4FE0327C4FEA947C6
:1001A0006316F700B545371500807D378327C4FEF9
:1001B00093F7F70FBE8537150080793F8327C4FE7C
:1001C0003E85F240624405618280411106C622C428
:1001D000000837150080B137AA873E85B240224417
:1001E00041018280011106CE22CC00102326A4FEFC
:1001F00019A88327C4FE138717002326E4FE83C7AC
:1002000007003E8569378327C4FE83C70700F5F3DF
:1002100081473E85F240624405618280797106D64D
:1002200022D40018232EA4FC232604FE91A08327A9
:10023000C4FDF1832324F4FE032784FEA54763C98C
:10024000E700832784FE938707033E85893739A01B
:10025000832784FE938777033E85153F8327C4FD5C
:100260009207232EF4FC8327C4FE85072326F4FE81
:100270000327C4FE9D47E3DCE7FA01000100B2500A
:10028000225445618280411106C622C40008B70786
:100290000200A107054798C30100B2402244410172
:1002A0008280011106CE22CC0010F32710342326C1
:1002B000F4FE8327C4FE3E85F240624405618280DD
:1002C000011106CE22CC0010F32720342326F4FEA1
:1002D0008327C4FE3E85F24062440561828001119D
:1002E00006CE22CC0010F32730342326F4FE8327D9
:1002F000C4FE3E85F240624405618280011106CE53
:1003000022CC0010F32700B02326F4FE8327C4FE7E
:100310003E85F240624405618280411106C622C4D6
:100320000008731000B00100B240224441018280F5
:10033000797106D622D40018232EA4FC232CB4FCF9
:100340000327C4FDFD4763F4E700854771A8B7079D
:10035000100003A7C75B8327C4FD8A07BA9723262B
:10036000F4FE032784FD8327C4FEB307F74023244C
:10037000F4FE032784FEB70708006358F70003273D
:1003800084FEB707F8FF6354F7008947B1A88327B5
:1003900084FE2322F4FE832744FE13974701B70708
:1003A000E07F7D8F832744FE93969700B707100068
:1003B000F58F5D8F832644FEB7F70F00F58F5D8FB5
:1003C000832744FE9396B700B7070080F58FD98F37
:1003D00093E7F7062320F4FE8327C4FE032704FED9
:1003E00098C30F10000081473E85B25022544561EA
:1003F0008280011106CE22CC00102326A4FE832782
:10040000C4FE73A047300100F2406244056182805F
:10041000011106CE22CC00102326A4FE8327C4FEA1
:1004200073B047300100F2406244056182800111DF
:1004300006CE22CC00102326A4FE8327C4FE89C743
:10044000A14773A0073021A0A14773B00730010076
:10045000F240624405618280411106C622C4000850
:10046000B707100013858757B53BB70710001385F2
:1004700087588D3BB707100013858759A53315356D
:10048000AA873E85613BB70710001385475A993B01
:10049000053DAA873E855933B70710001385075BD2
:1004A0009133353DAA873E85953B2945CD310100E5
:1004B000FDBF797106D622D40018B7070080232625
:1004C000F4FE9307803E2315F4FE231404FE15A8C2
:1004D000232204FE39A00100832744FE850723223E
:1004E000F4FE032744FEE1679387F769E3F5E7FE2F
:1004F000835784FEC207C1838507C207C1832314C3
:10050000F4FE835784FE1397070141838357A4FEAB
:10051000C207C183E36EF7FA8327C4FE054798C379
:10052000231104FE15A8232E04FC39A00100832703
:10053000C4FD8507232EF4FC0327C4FDE1679387E0
:10054000F769E3F5E7FE835724FEC207C1838507F9
:10055000C207C1832311F4FE835724FE13970701BA
:1005600041838357A4FEC207C183E36EF7FA832752
:08057000C4FE23A0070091BFA7
:10057800455843455054494F4E2121210A00000057
:100588003D3D3D3D3D3D3D3D3D3D3D3D0A0000007D
:100598004D4550433A202020307800000A4D434111
:1005A8005553453A203078000A4D5456414C3A206C
:0405B8002030780077
:0405BC00000010002B
:040000050010008067
:00000001FF
